:020000041000EA
:1000000000B5324B212058609868022188439860DF
:10001000D860186158612E4B002199600221596106
:100020000121F02299502B49196001219960352056
:1000300000F044F80222904214D00621196600F024
:1000400034F8196E01211966002018661A6600F04E
:100050002CF8196E196E196E052000F02FF8012189
:100060000842F9D1002199601B49196000215960AB
:100070001A491B48016001219960EB211966A021F2
:10008000196600F012F800219960164914480160C1
:100090000121996001BC002800D000471248134993
:1000A000086003C880F30888084703B5996A0420EC
:1000B0000142FBD001200142F8D103BD02B5186610
:1000C0001866FFF7F2FF186E186E02BD00000240BE
:1000D000000000180000070000035F00212200005C
:1000E000F4000018222000A00001001008ED00E03C
:1000F00000000000000000000000000074B24E7A12
:1001000000200420F7010010C3010010C5010010F9
:10011000C1010010C1010010C1010010C101001097
:10012000C1010010C1010010C1010010C701001081
:10013000C1010010C1010010C9010010CB01001065
:10014000CD010010CD010010CD010010CD01001037
:10015000CD010010CD010010CD010010CD01001027
:10016000CD010010CD010010CD010010CD01001017
:10017000CD010010CD010010CD010010CD01001007
:10018000CD010010CD010010CD010010CD010010F7
:10019000CD010010CD010010CD010010CD010010E7
:1001A000CD010010CD010010CD010010CD010010D7
:1001B000CD010010CD010010CD010010CD010010C7
:1001C00000BE00BE00BE00BE00BE00BE00F04BF888
:1001D000103800BEF2EB88710C5300103853001039
:1001E0003402001090A31AE700202149086006C8D5
:1001F00081F3088810471F48006800282FD10DA4FC
:100200000ECC002902D000F012F8F9E71A491B4A77
:10021000002000E001C19142FCD1194988471949E9
:1002200088471949884700BEFDE701C901C29A42C3
:10023000FBD3704738530010C0000020AC030020EF
:100240002456001000000420000004202456001052
:1002500000100420001004200000000070470B482C
:1002600002F080F80047EFF30580C0B2704700004D
:1002700008ED00E0000000D0B0030020800D002059
:10028000251B00105D030010151C001057560000C0
:1002900006005250ABB36053345100100600525068
:1002A000861C030244510010060052505422A29DA5
:1002B0004C51001005005250DE65F46824560010C1
:1002C000F8B5C0460448054B10B5834203D0044B33
:1002D000002B00D0984710BDAC030020AC030020D9
:1002E0000000000006480749091A8B10C90FC918F9
:1002F00010B5491003D0044B002B00D0984710BD17
:10030000AC030020AC0300200000000010B5074C37
:100310002378002B09D1FFF7D5FF054B002B02D026
:10032000044800E000BF0123237010BDB00400208A
:1003300000000000284F0010054B10B5002B03D023
:100340000449054800E000BFFFF7CCFF10BDC046E0
:1003500000000000B4040020284F0010F0B5DE4675
:100360004E4645465746E0B59BB004F043FD04F0C9
:1003700033FC02F0B1FCE121E248490200F0A6FCA6
:100380000221102000F0B0FB0221112000F0ACFB94
:100390003C22DD490BA802F039FB192000F0D4FB08
:1003A000D0258022052401262D0692046A622000B1
:1003B00000F0CAFB3300A34001346B620A2CF6D173
:1003C00010AB99460123D0270BAE340098463F0668
:1003D00020CC280000F0B8FB4346AB4001220021AE
:1003E0002800BB6200F098FBA145F1D1D0231B0689
:1003F000012498460FAD77690436380000F0A4FB5D
:1004000023004246BB405362B542F4D10B9B109A85
:1004100099460E9B0D9F98460F9B01250293230042
:10042000934003932300119A0C9E9340049323005E
:10043000129A93400593139B9C40B44B06949B46A1
:100440003B00D0244F469946240603F049FA039B0B
:1004500063616368FB401D4200D03BE12023A36140
:100460006368F3401D4200D03BE140234A46A3614C
:100470006368D3401D4200D03BE180234246A36124
:100480006368D3401D4200D048E180235B00A36134
:100490006368029AD3401D4200D048E180239B004C
:1004A000A361039BA361049B63616368FB401D42DE
:1004B00000D048E12023A3616368F3401D4200D0CF
:1004C00048E140234A46A3616368D3401D4200D0FF
:1004D00048E180234246A3616368D3401D4200D0B7
:1004E00048E180235B00A3616368029AD3401D4208
:1004F00000D048E180239B00A361049BA361059B7E
:1005000063616368FB401D4200D048E12023A36182
:100510006368F3401D4200D048E140234A46A3618E
:100520006368D3401D4200D048E180234246A36166
:100530006368D3401D4200D048E180235B00A36183
:100540006368029AD3401D4200D048E180239B009B
:10055000A361059BA361069B63616368FB401D4229
:1005600000D048E12023A3616368F3401D4200D01E
:1005700048E140234A46A3616368D3401D4200D04E
:1005800048E180234246A3616368D3401D4200D006
:1005900048E180235B00A3616368029AD3401D4257
:1005A00000D048E180239B00A361069BA36100F07B
:1005B000A3FF5B461B689A46002900D15BE1FA2243
:1005C0000023920001F03EFF5346C01A092800D8CC
:1005D0003BE753465A460A33136004F02DFC82462B
:1005E00003F0EEF8002803D05346002B00D04CE176
:1005F000002004F099F8002800D126E7444B0021A0
:1006000000229B5E01919A46612339009C46079621
:1006100057468A460799664620228C463D48394B04
:100620000199002900D00AE1B74200D10FE1996990
:100630000A42FCD11E60017801300D394E427141F1
:100640000678C9B20191002EEAD16346B4465246FB
:100650001E006346BA46170062460021099308ABA4
:100660001A81042308AA0191390013716D339C4645
:10067000079657468A460799664620228C462648A2
:10068000204B0199002900D0E7E0BE4200D1ECE008
:1006900099690A42FCD11E60017801300D394E4241
:1006A00071410678C9B20191002EEAD1574609ABD3
:1006B000002201210020664604F09AF8642000F030
:1006C0002DFE03F00DF9039B63616368FB401D423F
:1006D00000D1C3E6202363616368F3401D4200D16B
:1006E000C3E640234A4663616368D3401D4200D19C
:1006F000C3E68023424663616368D3401D4200D154
:10070000C3E60BE000400340344F0010CC0400204F
:10071000BC0A0020284F00102C4F001080235B00E3
:1007200063616368029AD3401D4200D1B6E680231C
:100730009B006361039BA361049B63616368FB404F
:100740001D4200D1B6E6202363616368F3401D4279
:1007500000D1B6E640234A4663616368D3401D4238
:1007600000D1B6E68023424663616368D3401D42F0
:1007700000D1B6E680235B0063616368029AD340D0
:100780001D4200D1B6E680239B006361049BA361F8
:10079000059B63616368FB401D4200D1B6E62023E0
:1007A00063616368F3401D4200D1B6E640234A46C8
:1007B00063616368D3401D4200D1B6E680234246A0
:1007C00063616368D3401D4200D1B6E680235B00BD
:1007D00063616368029AD3401D4200D1B6E680236C
:1007E0009B006361059BA361069B63616368FB409B
:1007F0001D4200D1B6E6202363616368F3401D42C9
:1008000000D1B6E640234A4663616368D3401D4287
:1008100000D1B6E68023424663616368D3401D423F
:1008200000D1B6E680235B0063616368029AD3401F
:100830001D4200D1B6E680239B006361B5E699694D
:100840000A4200D1F6E699690A42F8D1F2E69969BE
:100850000A42FCD10D211960E9E699690A4200D1EA
:1008600019E799690A42F8D115E799690A42FCD15A
:100870000D2119600CE7FA21890001F0A1FD534612
:10088000C01A092800D8E0E5A3E602F0A1FFDCE5E4
:10089000FA22024B92001A607047C046A80200205C
:1008A000FA22014B1A607047A8020020014B024A4D
:1008B0001A607047A8020020C4090000FA22024B07
:1008C00092001A607047C046A802002070B50C78EC
:1008D00088B00134E4B2042C01D908B070BD04F032
:1008E000ABFA002003F020FF0028F6D0032C7FD0C5
:1008F000042C67D0012C0CD0022CEED100230293E3
:1009000001930533002202210093002003F0B6FF7B
:10091000E3E70022612520210D263A4B3A4C0020C6
:10092000185E3A4B002A35D1A8423AD09A69114252
:10093000FCD11D60227801340D3A55426A41257878
:10094000D2B2002DEED16B466A461D830423059575
:10095000202113750D2600222D4C2C4B7135002AB9
:1009600024D1854229D09A691142FCD11D60227898
:1009700001340D3A55426A412578D2B2002DEED1AC
:100980000022012105AB002003F032FF642000F0BB
:10099000C5FCA2E79A691142CBD09A691142F9D1FC
:1009A000C7E79A691142FCD11E60BFE79A691142FC
:1009B000DCD09A691142F9D1D8E79A691142FCD189
:1009C0001E60D0E705AC06220021200002F018F8D6
:1009D0001B2301226B44A2711A70002204215A7059
:1009E0009A70DA7000200B23220003F0B9FE74E73E
:1009F000EA2305AA13800321E83B002003F0B0FEA0
:100A00006BE7C046BC0A0020284F0010004003409E
:100A10002C4F00100020704710B502A80088022A51
:100A200000D010BD0129FCD10028FAD01B781A4251
:100A300006D00022064B01201A6004F0F3F9F0E71B
:100A4000002004F0EFF9FA22014B92001A60E8E767
:100A5000A802002000487047B84F001000487047B7
:100A6000CC4F001000487047944F001070B500281C
:100A700025D0032830D8194B8000C658300004F028
:100A8000E3F9C0B2041C1F2814D8E4B2002820D017
:100A90000023134DAA1CF15C01331180D9B202323C
:100AA0008C42F8D8C023013464009B001C4328000A
:100AB0002C8070BD1F24E4B20028E9D109E0C124D4
:100AC000074D064B02221968A81C01F09FFFA400E5
:100AD000EDE7044C024DEAE70020EAE7AC02002013
:100AE000E804002002030000094A830094464022E3
:100AF000634410B51C68C0006240C02414408022CA
:100B0000520113431C60034B9C466044416010BD7E
:100B100004C00140004001400A4B80009C46042371
:100B20006044002901D00C230821002A00D10B00C9
:100B3000026853400C221A4080235B011843026074
:100B40007047C04604C001400123D02283401206F2
:100B500093629361094A8300944640226344196872
:100B6000C0004A40C0211140802252011343196045
:100B7000034B9C46052360444360704704C001401A
:100B800000400140F8B5EFF3108772B60E4E33689F
:100B9000002BFCD0BFF35F8FCB08C4180725A446F9
:100BA000C45C01230D40AB4018002040234208D113
:100BB000624623431370BFF35F8F306087F3108862
:100BC000F8BD100001F028F82C0100D0F8B5CE4691
:100BD00047468C4680B5EFF3108872B6214D2C68DD
:100BE000002CFCD0BFF35F8F9A422CD8D408072189
:100BF000055D0619012411408C402C421FD00721AD
:100C00008946063909E0D408055D06194C460F00EF
:100C10001440A7403C002F4211D001329342F2D23F
:100C200001204042BFF35F8F00220E4B1A6088F311
:100C3000108800280FDB0CBC90469946F8BD2C4369
:100C400010003470EEE7BFF35F8F00232B6088F352
:100C50001088012040426346002BECD0089800F039
:100C6000DBFFC0462C0100D0024B18688007C00F84
:100C70007047C04600C006400021044B044ABFF341
:100C80005F8F02C39342FAD17047C046000100D083
:100C9000800100D0044A1078431CDBB2172B00D926
:100CA000102313707047C046BC02002000B5054BEE
:100CB00083B00100009318221F230348FFF786FF2B
:100CC00003B000BDBC50001008060020F8B50400B9
:100CD00006200D0001F01CF9002845D02B4B2C49B3
:100CE000E3185A4253418022D20394465B42134098
:100CF000284A63441360284A136018008A689043A6
:100D0000FBD1224B8021E3185A425341234A5B0016
:100D100049000620995201F0FBF82900C00001F0BB
:100D20004FFBC30921D140270122260080256262A2
:100D3000A36200232C36AD0135432B60062001F061
:100D4000E7F83900800001F03BFB6023E26A534082
:100D50006E221A4080235B0133431A60104B2363D9
:100D600010232B600D3BA364F8BD0E4A934203D9B8
:100D700000230D4F0D4AD8E77F2210400130400874
:100D80009F011A003F180300CFE7C0460080FCBF58
:100D900000C0004000E0004000F00040BC0A00201D
:100DA00001030000FEFF0000C0FF3F00FFFF000046
:100DB00083680B4810B584466144624409011201FE
:100DC0009A18591854684B6801209C4201D802D0E7
:100DD0000020C0B210BD12680B689A42F9D8F7E73C
:100DE000FFFFFF0F0A4B1968EFF3108072B60A6815
:100DF000002AFCD0BFF35F8F1B68BFF35F8F002218
:100E00001A6080F3108840BF002000217047C04660
:100E1000980A0020F8B557464E464546DE46E0B5EE
:100E2000434D81468A466A68EFF3108872B61368AC
:100E3000002BFCD0BFF35F8F2E68B47B002C3ED01C
:100E4000670033683F19033FDA195378B373002BF7
:100E500000D1F3730023937053701370A968354A5F
:100E60008C464946A21812016244116051465160F5
:100E70003149D36091603268D21993705370137006
:100E8000737B9B46002B35D022001900B068736835
:100E900098473268002820D05B4658465B005B4488
:100EA000D719033BB870D118D35C002B00D07B70EE
:100EB0005B460C7073735C451DD0002626E06B68A2
:100EC000BFF35F8F1C6088F31088012040423CBC58
:100ED00090469946A246AB46F8BD5B465B005B4434
:100EE000033BD3189C70D119D25D002A00D05A70F0
:100EF0005B460B7074734A465346287D00F05CFBDA
:100F0000061EDAD02100286800F0CEFDEB686A6882
:100F10001B19013B1B78BFF35F8F0021116088F321
:100F200010880020002ED2D118022043CFE7C046FF
:100F3000C0020020FFFFFF0FE50D0010F8B5574677
:100F400045464E46DE46E0B599460CAB19780DABEA
:100F50001B78050090469A460768002912D1BE7B8F
:100F6000002E45D074003B68A419033C1B195A7825
:100F70003100BA73002A00D1FA7300229A705A70B5
:100F80001A7003E00E004C006418033C2C4B002246
:100F90009C46AB6861449C464346090161440B6032
:100FA0004B464B600A9B8B600B9BCB603B681B19CD
:100FB0009A705A701A707B7B9B46002B2CD03200A3
:100FC0005946B8687B6898473A68002817D05B464E
:100FD00058465B005B441419033BA070D118D35CE6
:100FE000002B00D063705B460E707B73B34514D04A
:100FF00030003CBC90469946A246AB46F8BD5B46E5
:101000005B005B44033BD3189E701119125D002AEC
:1010100000D05A705B460B707E7342464B46287D6B
:1010200000F0CAFA041E06D05346002B03D131004B
:10103000286800F039FD0E9B002BD9D01C70D7E733
:10104000FFFFFF0FF0B5DE464E46574645460023EC
:10105000E0B58DB00A936B4B8200D3580B90994644
:1010600000239B464B46079300F046FA079C060078
:101070000F006268EFF3108572B61368002BFCD086
:1010800022000794BFF35F8F2468637B9946002B8F
:1010900067D092685C4B90464B441B019844434692
:1010A0001A685B6810001900801BB94100295FDDD8
:1010B0000B9800F081FA00230026984600279A46F4
:1010C000079C6368BFF35F8F5A461A6085F31088E8
:1010D0005346002B08D10028C6D10DB03CBC904629
:1010E0009946A246AB46F0BD0A9B414618024B46C4
:1010F0001843D047089009916268EFF3108572B6E3
:101100001368002BFCD00794BFF35F8F0899099AEE
:10111000002A48DB114303D0079B1B69002B5DD1DC
:10112000079B1B68DA7B002A07D051008A181968D0
:101130008C4649466244033A51704A46DA734B463C
:10114000079A013BD168CA5C0132CA545B46079AD0
:1011500013615368BFF35F8F5A461A6085F3108896
:1011600082E700230026984600279A460020A7E73A
:10117000002901D100289BD10021200000F0F6FBBE
:1011800043461E685F689B68079A9A464346DB6839
:101190009846D3684B44013B1B780A931B020343D8
:1011A000136100208CE72369002BB9D033003C0089
:1011B0005B1A94411A002300A74219D89F421BD002
:1011C00059460491012103914946029141460191FA
:1011D000514607980091FFF7B1FEB7E700F08CF990
:1011E000089A099B06000F0092197B419942E5D9A4
:1011F00001225242D317E3E79642E1D9012252423B
:10120000D317DDE7840A0020FFFFFF0F10B5124C53
:101210006368002B04D00A21104800F05FFA10BD6B
:1012200023000F4A1021206800F0BEFA032000F0CE
:1012300057F9032000F032FA03200A4900F076F94A
:10124000FFF728FD084B9C46032360442375074B9A
:1012500080006060DC60DEE7C0020020980A0020A9
:10126000B10D00104510001040000034840A002029
:10127000F0B504000D0006267642F717C64636196B
:101280006F4100B58F4213D810D000F035F932000D
:101290003B00121A8B41002B14DC002B37D02900A5
:1012A000200000F033F904BC9046F0BD8642ECD932
:1012B0000026002700F020F932003B00121A8B4173
:1012C000002BEADD30003900FFF7A4FD0028E6DB43
:1012D00000239846BC460F4A0F4F7B6A9C4504D8B2
:1012E000B96A8E42DBD99C45D9D11168EFF31080E1
:1012F00072B60B68002BFCD0BFF35F8F1368BFF38F
:101300005F8F4146196080F3108820BFE5E7002A0F
:10131000C5D0D7E7980A00200040054070B5060008
:1013200000F0EAF8FA2204000D000023300000214A
:10133000920001F0FBFA001969418D4205D802D0F4
:10134000FFF796FF70BD8442FAD901204042C117D1
:10135000F6E7C046F8B5CE46474680B506000C0015
:10136000FFF758FD00280CDC2D4B0020596A8C42F9
:1013700003D89B6A0130B34245D30CBC90469946D2
:10138000F8BD20BF274D6A68EFF3108772B6136867
:10139000002BFCD0BFF35F8F2B68C1B29C465B7BF8
:1013A0008B4235D0FF2303405A00914662461268B3
:1013B000994490464A464244033A9278002A1DD006
:1013C000EA68000A90464344013B1B78C0B283425E
:1013D00021D06B68BFF35F8F00221A6087F31088FB
:1013E0000F4A0020536A9C42C7D8926A0130B24229
:1013F000C3D2E41A601E8441E0B2BEE72B69984272
:10140000E7D12A61E5E7641A601E8441E0B2B4E7DF
:10141000FF230340D4E7604600F046FBD9E7C0460F
:1014200000400540C0020020F0B5D6464F46464673
:10143000C0B5EFF305833F22134018001038EFF3D7
:10144000108C72B6204D2A68002AFCD0BFF35F8F43
:101450000122110081401D4C884661631C49170020
:101460000E788A463100C1400F400A4215D0194912
:101470008200646A51588C4219D3174BD2584346A4
:101480009E4353461E70BFF35F8F00232B608CF387
:101490001088002A06D0904704E0BFF35F8F2F60CA
:1014A0008CF310881CBC90469946A246F0BD0B4AAE
:1014B0009B00904643441A681A60BFF35F8F002375
:1014C0002B608CF31088EDE7280100D00040054028
:1014D000B80A00209C0A0020F8050020D03F0540F3
:1014E00010B50100024A0348FFF74CFB10BDC0468F
:1014F000D8500010B60A0020034B596A0A00986AB7
:10150000596A8A42FAD1704700400540064A536A38
:101510009942FCD807D1044B02E05A6A914202D1A9
:101520009A6A8242F9D370470040054070B50400C2
:101530000D00EFF3108672B61A4A1368002BFCD028
:10154000BFF35F8F002D1BD0200000F0F9FC16497F
:1015500081420AD0200000F0FBFC0121200000F0B5
:10156000DDFC0123A340114A1360114BA400E55098
:10157000BFF35F8F00220B4B1A6086F3108870BD9B
:101580000B4BA200D5500122A2400A4920000B7843
:1015900093430B70044900F005FD0021200000F08A
:1015A000BDFCE5E7280100D0291400103860054093
:1015B000F8050020B80A0020F0B54F46D64646464A
:1015C000C0B50700304C616A0D00A66A616AA94285
:1015D000FAD18B4208D805D001201CBC9046994610
:1015E000A246F0BDB242F7D9EFF3108972B6274890
:1015F00001680029FCD0BFF35F8F01252449BD405D
:101600008C460978204C0E002E438846F1B28A465B
:10161000614650460870391D1E48890065630A51AD
:10162000B9000B50216A0020294219D0616A0800D4
:10163000A66A616A8142FAD18B4219D801D1B242BD
:1016400016D8C2451DD0104B1F201D625D630123BB
:101650000740BB40104A1E381360634642461A706A
:10166000BFF35F8F0022094B1A6089F31088B4E73B
:101670000020BFF35F8F0022044B1A6089F31088AB
:10168000ABE70120ECE7C04600400540280100D050
:10169000B80A00209C0A002080E200E010B5EFF3B9
:1016A000108472B60A490B68002BFCD0BFF35F8F21
:1016B00001238340074A0848136202789A43027064
:1016C000BFF35F8F00230B6084F3108810BDC0460A
:1016D000280100D000400540B80A0020024B9C467B
:1016E00061448900016070474000003410B5040077
:1016F000FFF7D0FA01002000FFF7F0FFFF2323716E
:10170000BFF35F8F10BDC04610B50400FFF7C2FAEB
:1017100001002000FFF7E2FFFF23A380BFF35F8FEC
:1017200010BDC04610B504000120FFF7BFFA034BFF
:10173000C3189B002360BFF35F8F10BD40000034CF
:1017400070B505000E001400002924D0002A24D012
:1017500080686B689847296800280ED063001B19C1
:101760007200033B9219CB18033A9E7088188A5C6A
:10177000002A14D1047030000EE073009B1962003F
:10178000033B1219CB18033A9C7088188A5C002A14
:1017900000D05A700670200070BD0800FCE75A7037
:1017A00004703000F8E7C04630B583600023CCB247
:1017B00043730133047342608373C4730D00006884
:1017C000012C06D9421C0133DBB2137003329C4258
:1017D000F9D1FF2129404B00591800234018033844
:1017E000437030BDF8B5CE46474606000C0080B5C4
:1017F000002907D04D0003686D18033D5A1957782A
:10180000002F04D120000CBC90469946F8BD790009
:10181000C9190339884643445978894600215970CB
:10182000517073683A002100806898473368002837
:1018300014D042469A18947059195B5D002B00D061
:1018400053700F70270049463000FFF7CBFF390077
:1018500002003000FFF774FF0400D3E74246414620
:101860005D19AF709A185B5C002B00D06B70147020
:10187000E9E7C046F0B557464546DE464E46E0B578
:101880000D006B0001685B19DF1E0400C85D83B0AA
:101890000192CA1900284CD043001B18033BCB18F7
:1018A0005E78B446002E16D1019E002E3ED0E67B17
:1018B000002E04D073009B19CB18033B5D70E573B9
:1018C00000282FD10023537003B03CBC90469946AA
:1018D000A246AB46F0BD72006244033A89184A78CA
:1018E000904600224A7091465A7001003200200052
:1018F000FFF726FF43468246002B07D05B00216896
:101900004344033BCB185A78002A16D1424651462D
:101910002000FFF715FF2168019BCA19002BC6D1D3
:101920000028CFD043001B18033BCB18002199702F
:10193000C8E7019B002BBAD1C4E7500080180338D8
:101940000918487883464846487058704146200038
:10195000FFF7F6FE594680462000FFF743FF414659
:1019600002002000FFF7ECFE8046CFE7F0B54E46C0
:101970004546DE465746E0B5467B040075000068E4
:10198000AD19033D83B00191415D421900294ED04C
:101990004B005B18033BC3185F78BC46002F18D17F
:1019A000019D002D40D0E57B002D04D06B005B191C
:1019B000C318033B5E70E673002931D10023300069
:1019C0005370617303B03CBC90469946A246AB4647
:1019D000F0BD7A006244033A8018427893460022B0
:1019E000427091465A7020003A00FFF7A9FE5B460C
:1019F0008046002B07D05B0021685B44033BCB187B
:101A00005A78002A17D15A4641462000FFF798FE1F
:101A1000019B010020684219002BC4D10029CDD0C0
:101A20004B005B18033BC31800209870C6E7019B6E
:101A3000002BB8D1C2E75000801803380918487845
:101A4000824648464870587059462000FFF778FE95
:101A500053468346002B07D05B0021685344033B69
:101A6000CB185A78002A06D1594652462000FFF773
:101A700067FE8346C7E750008018033809184846B8
:101A80004F784870587051462000FFF759FE3900D2
:101A900081462000FFF7A6FE494602002000FFF71E
:101AA0004FFE8246E0E7C04670B5040000292CD006
:101AB000437B8B422ED00568480040180338281815
:101AC0008278002A21D053009B18033BEA5CEE1871
:101AD0008A4202D11BE0002A08D053009B18033B26
:101AE000EB185A788A42F6D142785A7000230122C4
:101AF000837043702000FFF7BDFE617B0200200071
:101B0000FFF71EFE6073012000E0002070BD4378E7
:101B10003370EBE701221900FFF7ACFE6073012080
:101B2000F4E7C0462C4B2D4A70B51A602C4A2D4B59
:101B30002D491A6010008B689843FBD12B4C2C4B1D
:101B40009C4209D2013B1D1BAD080135AD002D198A
:101B500008CC9847AC42FBD100F07CF8254A214BD9
:101B60001A60214A9368DB018033FBD14022224B6B
:101B7000224C234D9A675A671A67DA66AC4208D23C
:101B800023682000002B21D00834FFF7BDFDAC42B4
:101B9000F6D31C4C1C4DA168C022280000F036FF73
:101BA000A560FFF769F800F035FBFFF72FFB174C36
:101BB000174B9C4209D2013B1D1BAD080135AD00FE
:101BC0002D1908CC9847A542FBD170BD0834FFF70A
:101BD0008DFDAC42D4D3DCE700E00040BFCDFBFE7E
:101BE000FE7F3C0000F0004000C000409803002051
:101BF000A8030020FFFFFF0100F001409003002038
:101C00009803002000ED00E000000020A803002061
:101C1000AC03002000BEFDE70FB400B5084883B058
:101C200001F01EF8049B002B07D005A918000191B4
:101C300000F078FB034801F013F800BEFDE7C04652
:101C4000FC5000100C51001010B50148FFF7E4FFE4
:101C50001051001030B50C2083B000F03FFBFFF7AF
:101C600003F800280ED0944B944A1A605A609A6088
:101C7000DA601A615A619A61DA611A62904A5A62AC
:101C800003B030BD8F4CA06700F030FB01228E4BBB
:101C90001A60636C012BFCD103228C4B1A60894AB9
:101CA000936B012BFCD102240121894A8948053319
:101CB000009400F0C1FA0523874A01218748009467
:101CC00000F0BAFA864B5A68FF2A02D880225200E6
:101CD0005A608022784C7D4B21691201804D1A6038
:101CE000002905D0606900F06BFB01300138FDD19F
:101CF000E0217B4B02201A681140802252012A43C6
:101D000011601968484003210140116004219A685C
:101D10001142FCD08022802192012A4309011160E6
:101D2000802252005A606F4B23616F4B5968FF2924
:101D300000D85A6003226C48634B01211A600200EC
:101D400093681942FCD0E02513681D4080235B0195
:101D500003431D6012684A400321114019600221AB
:101D6000614A93681942FCD0802380219B01034380
:101D70000901196080215D4B4900516063615C4B32
:101D80005A68FF2A00D8596080225A4BE169120133
:101D9000574D1A60002905D0606900F011FB013031
:101DA0000138FDD1E02252490B681A4080235B01C3
:101DB0002B431A60802380229B012B4312011A605F
:101DC00080223E4B52004A60E3614B4B5968FF2929
:101DD00000D85A608022494B216A1201464D1A6090
:101DE000002905D0606900F0EBFA01300138FDD11F
:101DF000E02241490B681A4080235B012B431A60A3
:101E0000802380229B012B4312011A6080238022B1
:101E10005B004B60294BD2022362394B59689142D7
:101E200000D25A608022374B616A1201344D1A6029
:101E3000002905D0606900F0C3FA01300138FDD1F6
:101E4000E0222F490B681A4080235B012B431A6064
:101E5000802380229B012B4312011A608023DB0226
:101E60004B60174B6362284B5A68FF2A02D88022C6
:101E700052005A608022254BA1691201224D1A603E
:101E8000002905D0606900F09BFA01300138FDD1CE
:101E9000E0221D490B681A4080235B012B431A6026
:101EA000802380229B012B4312011A6080235B0058
:101EB0004B600E4BA361E3E60C060020006CDC02D5
:101EC0001BB70000008000403CB0004030B0004034
:101ED000002F68590080024000389C1C00C002405E
:101EE00030800040001BB7003C8000404059730721
:101EF0005480004054B000406080004060B000401A
:101F00006C8000406CB000404880004048B0004009
:101F1000014B8000C05870470C060020012383400D
:101F2000002904D0034A1360034A13607047034A30
:101F30001360FBE780E200E000E100E080E100E008
:101F4000024B10309B688000C058704700ED00E0E5
:101F500070B50D00EFF3108672B60F4A1368002BB0
:101F6000FCD0BFF35F8F0D4B10309B6884001B5972
:101F70000B4A934203D09D4201D0FFF765FE074B09
:101F80009B681D51BFF35F8FBFF35F8F0022024B31
:101F90001A6086F3108870BD240100D000ED00E0C7
:101FA000CD010010F0B5DE4657464E464546E0B539
:101FB0000C0083B0EFF3108A72B65B4A1368002BF3
:101FC000FCD0BFF35F8F1022914681444A46574BA5
:101FD00096009B689D59564B98469D4205D0A54258
:101FE00016D0544FEB1B2F2B14D9504B9B689D518F
:101FF000BFF35F8FBFF35F8F00224B4B1A608AF3F2
:10200000108803B03CBC90469946A246AB46F0BD52
:102010001D00EAE7012383409B465A46464B1B6856
:102020001A4000925A46454B1A60BFF35F8FFEF785
:102030001AF90190002803D0814501D0FFF704FE72
:1020400001232A009A4313003D49DB1B5B4159439E
:10205000090D93689C4208D15BE043001B189B006C
:10206000FB189868A04211D01A00062010560028CC
:10207000F3DA009B002B05D05A46324B1A602E4BE8
:102080001A60B2E75A462D4B1A60AEE70620185682
:10209000002822DB4200111889007C188846A168BC
:1020A0009960E179D971062161569971A1797F29E9
:1020B0001FD8A488F91A6405241544440919E0249A
:1020C0000905490D24022143998012181E4B9200E4
:1020D000BF181A781870BA71CBE7019800280BD195
:1020E000FF30907119489080174A107811709871DC
:1020F000BFE7BD210902E7E7154A1649D21A083A97
:102100005002400D01439980134952080A43DA8076
:10211000AFE70620105613000028BBDA019A002A08
:10212000EAD14546E0E7C046240100D000ED00E0DA
:10213000CD010010E802002000E100E080E100E0B5
:10214000AAAA000080E200E0B70A002000BDFFFF5D
:102150002203002000F0FFFF00F8FFFFF8B5012583
:1021600004000543FEF77FF80300EFF3108672B614
:1021700021490A68002AFCD0BFF35F8F1F4A200064
:102180001F49801A40414143090D1E489B00876842
:1021900049B2FF58AF421CD00623D3568B421CD005
:1021A0001223D3568B4222D01E23D3568B4220D0EB
:1021B0002A23D35603208B4210D0134B1A78197060
:1021C000A271BFF35F8F00220B4B1A6086F3108859
:1021D000F8BD82680D48D050EFE7002043001B187F
:1021E0009B00D218FF239371094B9380E5E70120F0
:1021F000F4E70220F2E7C046240100D0E802002004
:10220000AAAA000000ED00E0B70A0020CD010010EE
:1022100000BDFFFF054B064A1360064A136053607A
:102220009360D360136153619361704780808080B5
:1022300000E400E004E400E0F8B504000C2017001E
:102240001D000E0000F0BCF84101091A8B01591A5B
:10225000C90009188901380000F0B2F8069A2B0469
:10226000120313432268002A21DB184AA2185142A4
:102270004A41802149018C4652420A401449624435
:102280000A6014490A60144917008D68AF43FBD1F6
:10229000C021221D8901114321222660A0600A600D
:1022A0002268002AFCDAE36008230B60F8BD3F22B5
:1022B00021680A40B242D8D1A2681205120D8242AA
:1022C000D3D1E268002BD0D1F0E7C0460040FDBF7B
:1022D00000E0004000F0004000C000408023024ABF
:1022E0009B000343D362704700800540AA23064A3F
:1022F0001B0113602F230549D360054B19605368F8
:10230000002BFCDA7047C0460040024000B0FA00E3
:102310000060024010B5002800D110BD00F04EFC56
:10232000FBE7C04610B5094A0300146884B0002CCE
:1023300008D0012200910648524203A9A04701207B
:1023400004B010BD00F08CFC0020F9E77C0A0020EE
:102350001523001001480421014B184730030020C9
:1023600085230010142310B50100188804331B883E
:10237000984710BD162310B50100188802331B883A
:10238000984710BDF0B5C64600B5002916D01423F5
:1023900004000125984618278900461843462168FD
:1023A00018883B88984701C4431E98414042054025
:1023B000A642F3D1280004BC9046F0BD0125F9E700
:1023C000114A936F9B0813D210665166002905D0FD
:1023D000FFE7FFE7FFE7516F106F704704B5002874
:1023E00001D00020C04302F077FD002104BDC046AB
:1023F000F0B5146E556E576F166FFFF7E5FF146654
:10240000556657671667F0BD000000D094464E4AE7
:10241000926F9208624601D230E0C046F0B54A4E53
:10242000B56F6D08FCD3346E756E776F366F00F044
:1024300025F89446444A14665566576716676246FF
:10244000F0BDC0469446404A926F9208624601D25F
:1024500058E0C046F0B53C4EB56F6D08FCD3346E05
:10246000756E776F366F00F04DF89446364A1466F5
:102470005566576716676246F0BDC046002B24DBE1
:1024800011D000293EDA00B5C943404200D10131E4
:1024900000F038F8C943404200D10131DB435242D9
:1024A00000D1013300BD002AEBD1002801D1002961
:1024B00005D00020C90FC90701D1C043410800B5AC
:1024C00002F002FD0022002300BD00B500290ADB56
:1024D000DB43524200D1013300F014F8C9434042BB
:1024E00000D1013100BDC943404200D10131DB437D
:1024F000524200D1013300F005F8DB43524200D1D3
:10250000013300BD002923D1002B18D1002A0CD0A3
:10251000BC460D4F38667A6600210023FFE7FFE7CF
:10252000FFE77A6F386F67467047002801D0074889
:10253000010000B502F0C8FC0022002300BD02002B
:102540000B00002000217047000000D0FFFFFFFFBC
:10255000002B00D0BFE0130C28D1002AE7D080B4B4
:10256000114F39667A66FFE7FFE730B4040C7B6FE2
:10257000396F1B0423433B667A66FFE7FFE7FFE7FB
:10258000C04684B27B6F3D6F1B0423433B667A6673
:10259000FFE7FFE7C04600232C042D0C7A6F386F4D
:1025A00000196941B0BC7047000000D0F0B59446F6
:1025B0000025140E01D112020835140F01D11201A9
:1025C0000435940F01D192000235D40F01D152008D
:1025D0000135D40B0134254F7C66254C3C660E0C2E
:1025E00093B2FFE7FFE7FFE73C6F6643360C7703E4
:1025F000BE467343DF0B5B04C01AB941130C73432F
:10260000DB18C91ACE086643360CB64493B273433E
:102610001F0F1B01C01AB941130C73431F0B1B057D
:10262000C01AB941860D8F023E436643360C092D10
:1026300024DB520A7243801A7703460A6643360C3B
:1026400016235B1BDE40DF40BF1964466643821BD6
:102650007046043506330100D940A840C01900D3A4
:102660000131A24206D20023F0BD0000000000D0DC
:10267000FFFFFFFF121B0130F3D3F1E709277F1B98
:10268000FE406446A2B27243801A00D20139220C85
:102690007243130C1204821A99410B0070460435E0
:1026A00013370100F940A840801900D30131002BF5
:1026B00002D1A2420AD2F0BD013000D30131121B77
:1026C000FAD2013BF8D1A24200D2F0BD013000D3D2
:1026D0000131121BF7E7F0B51C0C00D080E00CB400
:1026E00000251C0A04D11B02160E334312020835C2
:1026F0001C0B04D11B01160F3343120104359C0B34
:1027000004D19B00960F334392000235DC0B02D1BB
:1027100092185B4101351C00971864410134464F03
:102720007C66464C3C660E0CFFE7FFE7FFE7C046C1
:102730003C6F6643360C7703BE4697B27743C01BA7
:1027400000D20139C01B00D201399FB27743C91BA7
:10275000C91B170C77437E04FF0B801BB941CE08C1
:102760006643360C0C2D33DBB644120B1F053A437F
:102770001B0B97B27743C01B00D201399FB277433E
:10278000C91B170C77433E043F0C801BB941860DD3
:102790008F023E43664329277F1BFE400C3D774650
:1027A000AF40BF1930BCA2B2ABB272437343801AC0
:1027B0009941220C7243130C1204801A99410200B1
:1027C0000B000137001BA941F9D2781E0021F0BD92
:1027D0000C277F1BFE4077467F0BAF40FF19E0E7D9
:1027E00000245D1C07D0144F7D663966FFE7FFE7C4
:1027F000FFE7FFE73C6F95B29EB265436643401B1F
:10280000B141150C1E0C6543664336042F0C3E4344
:102810002D04401BB141994204D202000B0020005C
:102820000021F0BD01D19042F7D3801A99410134C3
:102830009942F2D3F6E70000000000D0FFFFFFFF4F
:10284000132370B51D78012D15D010DD2748FFF733
:1028500091FD274C01008022200000F0D7F8022DC6
:1028600006D02448FFF77EFD234B186070BD204C36
:10287000224AA264F5E72E001D4C204AA3085B42C1
:102880001E401D422FD0330022602020B10061186D
:10289000801B0A604A608A60CA600A614A618A6174
:1028A000CA610A624A628A62CA620A634A638A63C6
:1028B000CA630A644A648A64CA640A654A658A65A6
:1028C000CA650A664A668A66CA660A674A6740082F
:1028D000102803D18A67CA67A264C2E71E339B002F
:1028E000E250A264BDE70023CFE7C0465344000096
:1028F000C00A00204C330000940A00200129001077
:1029000007B5604601880A0A0230DF2AFAD1C9B247
:10291000820804D3028840880004104300E0006865
:10292000014A5050039007BDC00A00205143434361
:10293000C9188C46110C83B24B4310B4040C61438C
:1029400092B280B2504362431C041B0C001910BCAD
:1029500059411304120CC0185141614470470000E2
:10296000132310B512481C78FFF704FD0100012C59
:102970000AD003DD80220F4800F048F80E48FFF728
:10298000F1FC0E4B186010BD0A4C5422200000F0E0
:102990003DF80B4B6365A365E36523666366A36639
:1029A000E36623676367A367E3672362E361E5E7A1
:1029B00053460000C00B00204C330000940A002056
:1029C000C529001007B5604601880A0A0230DF2ACF
:1029D000FAD1C9B2820804D30288408800041043A7
:1029E00000E00068014A5050039007BDC00B002072
:1029F00001480421014B18474003002085230010A3
:102A0000014B1B681847000040030020014B5B6826
:102A10001847000040030020030010B508001B68A1
:102A20001100984710BDC046F8B54746CE4680B560
:102A3000437C07000D001600002B37D00024002037
:102A4000002A1EDD4B1E98461B4B9946002C2BD0AE
:102A500043461B5D0D3B5A425341DBB22A5D0A2AB5
:102A600013D00134A642F1DC864203DD311A3B6803
:102A700028189847AD19013D2B780D3B5A42534118
:102A80003B740CBC90469946F8BD002BE9D1A0429E
:102A900003DA211A3B6828189847484602213B6808
:102AA000013498472000DDE73B7CD7E7036811003D
:102AB00028009847E5E7C0467C510010F0B557461E
:102AC0004E464546DE461C00D023E0B51B061F6877
:102AD000354B83B006000D00180001A991469A46B7
:102AE00002F002FA8046002808D1019B7FB29F4283
:102AF00004D0504602F008FA012398466B1C03D11B
:102B0000300002F0A1F90500002C2AD1274F284BF4
:102B10001C68002C18D04B46002B24D1254B99461D
:102B200002E0E468002C0FD02368002BF9D04B465C
:102B30001B68002B01D0A342F3D120002A003100F2
:102B4000B847E468002CEFD14346002B28D1681E1B
:102B50008541E8B203B03CBC90469946A246AB46DC
:102B6000F0BD154FD3E7134B99460A239B4602E06D
:102B7000E468002CE8D02368002BF9D04B461B6892
:102B8000002B01D0A342F3D12A0031002000B84726
:102B90005A466B4620001A7101A90122B847E7E79F
:102BA000504602F089F9D2E790030020292A00104C
:102BB0007406002078060020192A0010F0B5474658
:102BC000CE4680B583B06B46DF1CD02338701B0621
:102BD0001C68204B060001A91800984602F084F9F1
:102BE000051E22D01C4B1C68002C2AD01B4B99467A
:102BF00002E0E468002C10D02368002BF9D04B468B
:102C00001B68002B01D0A342F3D120000122390020
:102C1000FFF70AFFE468002CEED1002D11D130003F
:102C200003B00CBC90469946F0BD019B64B29C4237
:102C30000BD0404602F068F9074B01251C68002CB8
:102C4000D4D1404602F038F9E9E7034B1C68002C68
:102C5000CCD1E4E790030020740600207806002021
:102C600070B5040002F0F0F8002301000500012215
:102C70002000FFF723FF084B1C68002C06D0636878
:102C8000002B05D09847E468002CF8D1280070BDCF
:102C9000E468002CF3D1F9E7740600200D4A1368AC
:102CA000002B13D0834202D109E0984208D01A00C9
:102CB000DB68002BF9D1002900D0D06070471A00E2
:102CC0000029FBD1DB68D360C160F7E70029F5D0AC
:102CD0001060F3E77406002010B500F043F810BD53
:102CE000F0B50D1E15DD0E4B0D271A680D4B45195D
:102CF000D31859424B410C495B005E5E2021047899
:102D0000A64207D093691942FCD101301460A84251
:102D1000F5D1F0BD93691942FCD11760F2E7C046C6
:102D2000B00A00200080FCBFBC0A002030B50500BE
:102D3000002912DD00201024094B013D1A68936917
:102D40001C4208D1013093691C42FCD113682B54FA
:102D50008142F4D130BD0028FCD103204042F9E784
:102D6000B00A0020E12110B50B4B0C481B780C4B2E
:102D700049021B780B4B1860FDF7A8FF02210020C9
:102D8000FDF7B2FE02210120FDF7AEFE012106484B
:102D9000FFF784FF10BDC0463053001000400340D1
:102DA00034530010B00A00205003002070B51C00FE
:102DB0000A4B15001860FDF789FF002D03DB022187
:102DC0002800FDF791FE002C03DB02212000FDF717
:102DD0008BFE01210248FFF761FF70BDB00A0020A1
:102DE00050030020F0B5982357464546DE464E4630
:102DF0006C4AE0B5D75880253C006D02883B9A4666
:102E000083B02C402F420FD001222321664B00209B
:102E10005A54DA70654901F079FA8022644B9202C3
:102E20001A65644B2C009A46FB0617D480235B017D
:102E30001F4245D18023DB011F4200D088E0802360
:102E40001B021F4200D091E0BC4200D0A5E003B0BD
:102E50003CBC90469946A246AB46F0BD514B9B6D9B
:102E60009846002B27D0524B00259B4601239946BC
:102E700043460126B8461F0004E001357600EDB256
:102E8000202D17D03742F8D05B469E654B466C0824
:102E9000AB436400E418444B64019C466444200046
:102EA00000F094FB00286CD10135B743EDB27600F9
:102EB000002FE5D1474680235B0154461F42B9D01D
:102EC0001C430023374A00211360384A3A48936074
:102ED000D3603A4A9360D360394A9360D360394AE9
:102EE0009360D360384A9360D360384A9360D3606C
:102EF000374A9360D360374A9360D360364A936011
:102F0000D360364A9360D360354A9360D360354AC4
:102F10009360D360344A9360D360344A9360D36043
:102F2000334A9360D360F0229200FFF769FD314B82
:102F3000314A00211A600020012201F0BDF98022EF
:102F40001B4B12031A658023DB011F4200D176E779
:102F50000122042100201C4301F01EF91022144B11
:102F60001A6580231B021F4200D16DE70122052153
:102F700000201C4301F010F980220D4B12011A654C
:102F800062E74B46A28AA17800200093002301F05B
:102F9000E5F9200000F058FA86E72100174879404B
:102FA000FEF73AFE000011507C0600200000105091
:102FB0000030115010000100BC0600200800105025
:102FC0001000105018001050200010502800105011
:102FD0003000105038001050400010504800105081
:102FE00050001050580010506000105068001050F1
:102FF00070001050800A002080011050C051001055
:1030000010B501210520FEF789FF10BD10B5002283
:103010000021024800F03EFA10BDC0469C06002088
:103020008022024B5201DA647047C04600201150E2
:103030008022024B5202DA647047C04600201150D1
:10304000F0B5C64600B5060000F0D8F90C23364DA1
:103050000520AB673549FEF77BFF40239846344C8B
:10306000402200212000FFF7CBFC4146002301272E
:1030700000222120A1832F4967706380A277A1607D
:103080000B6022545F3060844046A087023822548F
:1030900029492A4A6360E160A2621360284A636298
:1030A000E1629360D360274A20009360D360264A90
:1030B00000219360D360254A40309360D360244A56
:1030C0009360D360234A9360D360234A9360D360B4
:1030D000224A9360D360224A9360D360214A93606E
:1030E000D360214A9360D360204A9360D360204A22
:1030F0009360D3601F4A9360D3601F4A9360D3608C
:10310000F0229200FFF77CFC1C4B1D4A30001A6035
:1031100080239B052F64EB6490231A4AEA50FFF743
:1031200087FF04BC9046F0BD00001150E52D001053
:103130007C060020840010500001105080001050C8
:1031400000001050080010501000105018001050CF
:10315000200010502800105030001050380010503F
:1031600040001050480010505000105058001050AF
:10317000600010506800105070001050800A00204D
:103180008001105010D001000B785B0602D14B7803
:10319000052B00D070478A78014B1A60FAE7C046C9
:1031A00000001150F0B5CE464746072380B5487958
:1031B0008E780A790340C8787F21800731401B024E
:1031C000F40913434F00820F944691462A4D3A1951
:1031D0005201AA1896700126664056706046002675
:1031E0009383D6709077CA00012C29D02348844657
:1031F000880162448446AC446046826016600029BF
:1032000029D01F4AC9009046414441603F223F33C4
:1032100093434A46022A00D15B001A493F190A68C3
:103220007F01D3180B60184BED195340EA604A46F2
:103230009006184380231B0618436B68186010E043
:1032400012488446880162448446AC4460468262E7
:10325000166000290AD1002364012D196B600C4B04
:10326000EB6001200CBC90469946F0BD064AC900AF
:10327000904641444162C9E77C060020840010501A
:1032800004001050800A00200000105080001050F0
:103290000001105000231C4A10B59360D3601B4AF4
:1032A00000219360D3601A4A1A489360D3601A4A87
:1032B0009360D360194A9360D360194A9360D360D6
:1032C000184A9360D360184A9360D360174A93609A
:1032D000D360174A9360D360164A9360D360164A4E
:1032E0009360D360154A9360D360154A9360D360AE
:1032F000144A9360D360F0229200FFF781FB124BD7
:10330000124A1A6010BDC04600001050080010504C
:1033100010001050BC060020180010502000105063
:10332000280010503000105038001050400010504D
:1033300048001050500010505800105060001050BD
:103340006800105070001050800A0020800110505A
:1033500010B57F200C0020404000E4091100001946
:103360001A00034B4001C01800F094F8012010BD72
:103370007C0600207F23180010B508400B420BD0BC
:10338000C909802240004018064940014018120136
:10339000002100F05FF810BD0223034AC9095B1A3F
:1033A0009366EEE77C060020002011507F23180072
:1033B00010B508400B4200D110BD00234000C909E0
:1033C000411804484901401800220349C37000F025
:1033D00041F8F1E77C060020FFF7FFFF7F2110B5E1
:1033E0008078044AC3099B0001409A580248FEF7BE
:1033F00013FCC04664030020D451001080220D4B02
:10340000520410B51A600C4B0C491A6010008B68FE
:103410009843FBD10A4C9C2200212000FFF7F0FAD0
:103420008022002152010748FFF7EAFA0923636767
:1034300010BDC04600E0004000F0004000C0004069
:103440000000115000001050002303744382838257
:103450008361704710B58368002901D01C68214042
:10346000002A11D08024E400114322420CD01A68B3
:1034700022420BD1064A0A401A60FFE7FFE7FFE746
:10348000FFE7FFE7FFE78368196010BDFFF7A6FFBE
:10349000FFFBFFFFF0B5C646002300B58382013372
:1034A0000374436804001E68838B81611F1C934270
:1034B00000D9171C8025BFB2D21BE37892B2ED0071
:1034C00062823D43002B02D09025AD013D43012097
:1034D0004340E3706378002B51D0002A1DD1A02314
:1034E000DB011D43354B1B6C354B33408026B60545
:1034F0001E436368A2681E6013685B055AD4314B93
:103500002B401360FFE7FFE7FFE7FFE7FFE7FFE779
:10351000A3681D6004BC9046F0BD80235B011D4381
:10352000264B1B6C9B0703D4A378DB09012BDBD153
:10353000A38B191C934200D9111C80278BB2FF006A
:10354000D21A98461F43E37892B26282002B03D0CE
:1035500090274146BF010F4301214B40E370637840
:10356000002B19D0002A02D18023DB011F43164B08
:103570003F043340A026F6053D431E43B9E73A0019
:10358000E068FFF743FAA369628A9C468023674498
:103590001B02A7611D43A0E7E0684246A1694030D5
:1035A000FFF734FAA369628A4344A36180231B02B4
:1035B0001F43D7E72000FFF711FFC046000011505E
:1035C000FFFFFFAFFFFBFFFFFFFFFFDFF0B5C646CA
:1035D00000B5067C0400002E00D1D3E083681A6891
:1035E0001D684378AD05AD0D002B51D1838AEB18D2
:1035F0009BB28382A18B8D4207D2002363826368D2
:103600001B68300004BC9046F0BD6268126852002E
:1036100002D58D4200D175E0638A002BF1D062683B
:103620001F1C16688B4200D90F1C8025BFB2DB1B04
:10363000E2789BB2ED0063823D43002A02D09025E0
:10364000AD013D4301214A40E2706278002A68D012
:10365000002B2AD1A023DB011D434F4B1B6C4F4B8A
:1036600033408026B6051E436368A2681E60136857
:103670005B0500D58DE04A4B2B401360FFE7FFE769
:10368000FFE7FFE7FFE7FFE7A36800261D60B8E755
:103690002A00C1688069FFF7B9F9A38AA269EB180B
:1036A0009BB25219A382A261A4E780225201154362
:1036B000394A126C920703D4A278D209012ACED1DA
:1036C000A28B111C9A423FD880278AB2FF009B1A16
:1036D00090461743E2789BB26382002A2FD10121E2
:1036E0004A40E2706278002A3ED0002B02D180234B
:1036F000DB011F432B4B3F043340A026F6053D431F
:103700001E43B1E7A26815686278AD01AD0D002ACD
:103710001CD1EB18A3828D4200D37DE70023638286
:103720006FE73A00A169E068FFF770F9A3699C466A
:10373000802367441B021D43A761638A88E79027A3
:103740004146BF010F43CAE7191CBDE7E1682A00E3
:103750004031A069FFF75AF9A38AA18BEB18A38225
:10376000A3695B19A361D6E7E0684246A1694030CE
:10377000FFF74CF9A3694344A36180231B021F4355
:10378000638AB2E77F238178074A08481940FEF729
:1037900043FA2000FFF722FE00001150FFFFFFAFA9
:1037A000FFFBFFFFFFFFFFDF64030020F451001069
:1037B000024B5878431E9841C0B270479C050020C8
:1037C000024B18784007C00F7047C0469C05002088
:1037D000094A10B513785B07DC0F002B05DA1823B4
:1037E00012781340182B02D00024200010BD0020B6
:1037F000FFF716FCF9E7C0469C050020014B18783E
:103800007047C046B50A0020F8B54746CE4680B599
:10381000294F05003B78002B04D001200CBC9046BA
:103820009946F8BD532200212448FFF7E9F8244CBB
:103830002000FDF75BFF234B1C60234C20001C3055
:10384000FDF770FF200001F0AFFA204B204E1C6006
:10385000204B9846002B04D0300000E000BF1E4BE8
:103860001860424600243378002A1DD01B4A904637
:10387000194A91469C4210D31BD1434698470134C4
:103880003378E4B2A342F5D22800FFF7D9FB280031
:10389000FFF7B6FB01233B70BFE74A46630012689F
:1038A0001B19DB009B58E9E701F03AF83378002B4D
:1038B000EAD000231B68FFDEB50A00209C0500202B
:1038C00054050020F00500206C030020F4050020C2
:1038D000B40A002000000000D0040020214900109C
:1038E000F0B5DE4657464E464546E0B589B001F094
:1038F00079F9002800D147E1C44BC54D9B4605AC82
:103900002E68F269EFF3108372B611680029FCD0BB
:10391000BFF35F8F33622100300001F0B9F9F26923
:10392000336ABFF35F8F0021116083F31088002892
:1039300000D129E16378082BE2D8B64A9B00D3581E
:103940009F466368002BDBD0A0689847D8E77F22AA
:103950002179AE4B0A405600C8099B191B18180064
:1039600001273030C678BE43C670C6780337BE43E1
:10397000C670002A00D10EE1A74ADB7C002A06D0DF
:10398000A64A1278934200D293E19B1ADBB2002B35
:1039900000D0F9E0A24E62792078A368B047AFE783
:1039A0005B4601221B78012113435A4613703323CF
:1039B0005846D25C5E468A43C254C25C04208243AD
:1039C000F2540133F25C27788A43F254F25C82436A
:1039D000F254002000F018FE602223791A40602A79
:1039E0000DD0402A00D1F3E0DB06DB0E012B00D125
:1039F0006AE1022B00D123E1002B00D1F7E020780F
:103A00000021FFF7B7FC80212078FFF7B3FC77E7B0
:103A10007E4B1B78DB0700D472E7824B002B00D172
:103A20006EE7FCF74BFF6BE7784B1A78D20700D4B0
:103A300066E77D4A002A00D162E718780007C00FC8
:103A4000FCF734FF5CE7754E734A00273378002A91
:103A500000D1B7E0754A9046BB4209D8BB4200D0BE
:103A6000B3E00137FFB29F4200D949E7BB42F5D925
:103A7000414609687A008C46D219D20062445269E4
:103A8000002AEED02078904701373378FFB29F426A
:103A9000E2D935E72378614E5F4A984600273378AC
:103AA000002A00D186E0624A9146604A924632007E
:103AB00046469046BB425ED800D078E04B46300088
:103AC0009847434601371B78FFB2BB42F2D24F4EB4
:103AD000532200213000FEF793FF1022FF21F01C3B
:103AE000FEF78EFF30002022FF211330FEF788FF03
:103AF00000F080FD4F4B002B00D101E7FCF7D0FE1A
:103B0000FEE62378454E444A984600273378002A3B
:103B100047D0474A9146454A92463200464690462B
:103B2000BB421FD843D14B4630009847434601372C
:103B30001B78FFB2BB42F3D2344E53220021300037
:103B4000FEF75EFF1022FF21F01CFEF759FF300048
:103B50002022FF211330FEF753FF00F04BFD2379A5
:103B6000B370CDE6524612687B009446DB19DB0049
:103B700063445B68D8E7524612687B009446DB19C1
:103B8000DB0063445B689AE709B03CBC9046994609
:103B9000A246AB46F0BD62792078A36800F048FDEC
:103BA000AEE6404600F0C6FE3378002BC4D00023BA
:103BB0005B68FFDE404600F0BDFE3378002B00D18D
:103BC00085E7F4E7002B00D19AE600235B69FFDE6E
:103BD0001948002800D112E700F016FD0021380036
:103BE00006AA00E000BF002800D089E607E7202AE7
:103BF00000D19EE0002A00D001E76379092B00D9AB
:103C0000FDE60E4A9B00D3589F46C0469C05002007
:103C1000F40500202052001000000000B40A00202B
:103C2000754B0010BD080010AD080010D004002036
:103C300035490010A1080010000000004452001097
:103C40007023217A0B4200D0D9E6C80984460F338D
:103C50000B405B00F018C84E6044C07C002E06D0BC
:103C6000C64E3678B04200D284E0801BC0B2002835
:103C70007CD1002A70D1C24E6279924602229046CF
:103C8000524640468243012A00D119E15246002A99
:103C900000D0B4E65B4463443033DB7804AA9B076E
:103CA000DB0F023213803800022306A900F046FC25
:103CB00026E65A00D318B34ADB001268D318002B4B
:103CC00000D161E71E6966E6237A0F2B00D996E6DC
:103CD000A94A5B44DB78002A05D0A84A12789342AF
:103CE00056D39B1ADBB2002B00D088E6A648A44E20
:103CF00000F08AFC00213800F36806AA98470028E3
:103D000000D0FDE56022160023791E401A4200D043
:103D100075E663790A3B012B00D970E600F074FC6C
:103D200063790A2B00D11EE1380006A900F0EEFBF2
:103D3000E6E5237A0F2B00D961E68F4A5B44DB78F6
:103D4000002A06D08D4A1278934200D2DCE09B1AFA
:103D5000DBB2002B00D052E68B48894E00F054FCB9
:103D600000213800F36806AA98473CE70026002A9D
:103D700082D044E646003018824EC00036683618BD
:103D8000002A00D178E7002E00D138E6F068E5E798
:103D90007C4A5E00F3181668DB00F618002E00D18E
:103DA0002DE6F068A4E7A279019273789A4207D0D1
:103DB0007378002B00D053E1019B002B00D0EDE085
:103DC0005B46019A380006A95A7000F09FFB97E500
:103DD000E388012B00D012E60822337893435A4639
:103DE0001370A1E70220317804AB9A1C8B06890876
:103DF000DB0F01400B4355E7737804AA02321370BE
:103E00003800012306A900F099FB79E5E088030A50
:103E1000C0B20F2B00D9F2E55C499A008A58974648
:103E200006A800F0F7FB3800A179FFF7EFF80222AF
:103E300033781343337063E5E388012B00D0DEE56C
:103E4000082233781343CAE7514B002B00D1D6E543
:103E500000E000BF021E00D1D1E53800137806A9AA
:103E600000F06CFBBFE62189FCF700FE021EF4D1D6
:103E7000C5E5022B00D17DE1464B002B00D1BEE50C
:103E800000E000BF0200002A00D1B8E5D3789178A5
:103E90001B020B43380006A900F050FBA3E6FCF719
:103EA000D9FD1223020006A9380000F047FB9AE66C
:103EB000394B002B00D1A2E500E000BF0200E5E78E
:103EC000E288002A0BD152465B446344012A25D084
:103ED0003022904698444346DB789B0734D5002E29
:103EE00000D10DE5F06800F08FFBF36806AA002111
:103EF00038009847002000F087FB34235A46D35CF3
:103F0000DB0700D5FCE40FE71E4A5E00F3181668D5
:103F1000DB00F618002E00D171E537E72F3291460D
:103F200099444B46DB789B07D9D53800FFF73EFA1A
:103F30004B464246DB7893434A46D370D378524689
:103F400093434A46D370CAE73800FFF713FA434653
:103F50000222DB7813434246D370D3780122134305
:103F60004246D370BBE704AB9A1C3800012306A974
:103F7000167000F0E3FAC3E400000000B40A002069
:103F8000AC520010D0040020D54900106C52001033
:103F9000000000000000000000000000581EC0B239
:103FA000FCF760FD002800D129E54378022B00D002
:103FB00025E50121C279BA46931152110B400A40FE
:103FC00012015B0113435A4612782F318A4313437F
:103FD0005A4613700923984680444746C37882782E
:103FE0001B021343C3180293029BBB4200D8B9E0E3
:103FF00001227B7800920B2B04D1FB7800933B7855
:10400000FF187B78042B00D0F9E4029B5B4ADB1B92
:104010009BB298465A4B00261B78002A13D160E0C9
:10402000B3426FD1574B4246390050469847082853
:1040300002D94346834268D2514B01361B78F6B20F
:10404000B34200D2DBE4B342EAD94F4B1B6803937F
:10405000039A730094469B19DB0063449B68E2E774
:104060003800FFF717F9B378444A454E9A460021C5
:104070003378002A2ED0444A904632000E009146F2
:10408000B3421ED800D092E5404B380098474B46CB
:1040900001361B78F6B2B342F2D2532200215846C1
:1040A000FEF7AEFC5B461022D81CFF21FEF7A8FCF1
:1040B0002022FF213648FEF7A3FC5B4652469A7049
:1040C0007AE642461268730094469B19DB0063440B
:1040D0005B68DAE7380000F02DFC3378002BDCD089
:1040E00065E542463900504600F02EFC46468146C2
:1040F0008046082801D9B04228D9214B1B78002BD3
:1041000000D17CE400239B68FFDE009B8146002BEE
:104110000FD0BB78009A9A18D2B204E00133DBB218
:10412000CE709A4205D05946C918C878FF28F5D0F4
:1041300065E4330039004A46154800F093FD104B02
:104140004F441B78B34200D34EE758E4009B0B4E1C
:10415000002BDED139004246084B0D4800F082FDAD
:10416000474441E70B4B5746002B00D128E6FCF7AC
:104170008FFB25E6FCF776FC020084E600000000D9
:10418000B40A002049490010D0040020354900102D
:10419000AF0500209108001030B587B005000C0075
:1041A0000C2200216846FEF72BFC6B461D705C70EC
:1041B000042C4FD009D8022C34D0032C28D13C4BEE
:1041C0001A78520758D407B030BD052C20D1384B8F
:1041D0001A78D207F7D504211A788A431A70354B1A
:1041E0001C68E269EFF3108172B61368002BFCD0F3
:1041F000BFF35F8F21626946200000F097FDE269FE
:10420000236ABFF35F8F0021116083F31088DAE720
:10421000284B1C68E269EFF3108172B61368002B1B
:10422000E6D1FBE70121224B1A788A431A701A78EB
:104230000331A2431A7000225A701A788A431A7006
:104240001C4B1C68E269EFF3108172B61368002BF7
:10425000CED1FBE7164B1A78D207B4D504211A78D1
:104260000A431A70134B1C68E269EFF3108172B6AF
:104270001368002BBCD1FBE704211A7803A88A43FA
:104280001A7000210C22FEF7BBFB6B466A461D73B9
:1042900005235373074B1C68E269EFF3108172B674
:1042A0001368002BFCD0BFF35F8F216203A9A3E743
:1042B0009C050020F405002070B584B001AC060018
:1042C0000D000C2200212000FEF79AFB01236370F1
:1042D0000D4B25711D682670EA69EFF3108372B6E5
:1042E00011680029FCD0BFF35F8F2B6221002800EA
:1042F00000F01CFDEA692B6ABFF35F8F002111609B
:1043000083F3108804B070BDF4050020002330B59D
:1043100085B001AD6B8028700633082202A86B704F
:10432000FEF774FB0C4B1C68E269EFF3108372B666
:1043300011680029FCD0BFF35F8F236229002000A1
:1043400000F0F4FCE269236ABFF35F8F0021116083
:1043500083F3108805B030BDF4050020F0B5C646E3
:10436000804600B584B001AC0F0016000021082281
:1043700020001D00FEF744FB4346237007236370B3
:104380000F4B65711D682771A660EA69EFF3108312
:1043900072B611680029FCD0BFF35F8F2B62210039
:1043A000280000F0C3FCEA692B6ABFF35F8F00218D
:1043B000116083F3108804B004BC9046F0BDC04681
:1043C000F4050020F0B54646D6464F468046C0B5B7
:1043D0000C0015001E00002A2ED070239946184BA1
:1043E00000279A466378052B0FD1E1788907890F5A
:1043F000B1420AD14A46A3781A4206D15346200058
:10440000997800F0F3FB002805D100201CBC9046F1
:104410009946A246F0BD21004046FEF7C3FE0028A3
:10442000F3D0A378DA09012A08D0089A1370237808
:104430000137E418AF42D5DB0120E7E7099AF5E739
:104440009C05002070B57F240C406300144CC90902
:10445000E41864183034E378DB07DD0F002B18D143
:10446000E3785B0701D5280070BD01210D4E49425C
:10447000306800F041FDE378DB07DD0F002B0AD147
:10448000E3785B0708D40422E37801251343E37043
:1044900002E00025E7E70025306800F00DFDE2E7C7
:1044A0009C050020F005002070B57F240C406500BD
:1044B0000E4C06006419C80924183034E578002031
:1044C000ED0700D570BD0125E0782843E07030008D
:1044D000FEF73EFF0028F5D10122E3789343E37015
:1044E000E37803329343E370ECE7C0469C05002079
:1044F0007F22CB090A40044952008918C91830317B
:10450000C878C007C00F70479C05002070B50A4EE0
:104510000500082230000C00FEF778FA00216156F1
:104520000023C943C90F2800F3600022C901B3600A
:10453000FFF7BAFF70BDC046D4040020F8B5CE46E0
:1045400047469046294E80B58146082230000D002E
:104550001F00FEF75BFA4346B3600023F381EC795A
:10456000AB7924021C43231CBC4200D93B1C9FB2E4
:10457000B381002C12D0002F1ED04346002B32D026
:104580003B1C402F1ED89FB233787F2B1FD80021B1
:10459000174A3B004846FFF787FF09E000216956AC
:1045A0000023C943C90F00224846C901FFF77CFF19
:1045B0000CBC90469946F8BD33787F2B10D98021EA
:1045C0000022E6E740239FB233787F2BDFD9084CE7
:1045D0003A0041462000FEF719FA80212200D8E770
:1045E00000210022D5E70020E2E7C046D4040020E5
:1045F0005C05002010B5142200210248FEF700FAE5
:1046000010BDC046D4040020014B18617047C0465D
:10461000D404002010B5054C010008222000FEF74C
:10462000F5F90023A360E36010BDC046D404002068
:10463000F8B53A4C1D0023780600DA09C9098A4208
:1046400013D00020002D00D0F8BD354B002B03D037
:1046500021003000FEF798FD2369002B43D0220093
:104660000221300098470120EEE77F2B06D8A06892
:10467000002836D02A002B49FEF7C8F9A368E28942
:1046800059195219E38892B2E281A160934214D081
:104690003F2D12D9A589A81A071C80B240282ED810
:1046A0002378BFB27F2B2CD80021AA4234D01D4AD8
:1046B0003B003000FFF7F8FEC6E72369002B05D06A
:1046C000220001213000984700280ED000216156B9
:1046D0000023C943C90F00223000C901FFF7E4FEDF
:1046E000B2E70020B0E70120AEE700213000FEF77E
:1046F00041FE30008021FEF73DFE0120A4E7402767
:10470000CEE7AA4207D0074C3A002000FEF77EF918
:1047100080212200CCE780210022C9E7D4040020B8
:10472000893100105C0500202C2343430B4810B551
:10473000C0184478FFF73CF8002801D1002010BDD4
:10474000FFF73EF80028F9D1002CF7D02100002017
:10475000FFF7CEFE01235840C0B2F0E72805002045
:10476000F8B52C244746CE464443204E80B5341934
:10477000050089460020617890461F00FFF762FE21
:1047800000281DD04B46002B1ED03B1C0F2F29D8D4
:104790002C244A466C43DFB23319083434191A7298
:1047A00041463A00601CFEF731F90137FFB22C2078
:1047B00045437619220000207178BBB2FFF774FEE2
:1047C0000CBC90469946F8BD3B1C102F0CD82C24ED
:1047D0006C430834DFB234193A0041462000FEF73A
:1047E00015F9E4E70F23D3E71023F0E728050020AD
:1047F000F0B54746CE4680B583B06E460F0019002F
:104800000023327005000622737000292FD0B01CDF
:10481000FEF7FCF82C246C43174BA1469846C14484
:104820004B4600205978FFF70DFE00280FD0002FCF
:1048300012D108344444230006CE06C308232C209A
:1048400045434544220000206978FFF72DFE03B060
:104850000CBC90469946F0BD4B46083444441F7248
:1048600008223100601CFEF7D1F80923E7E7002198
:10487000B01CFEF7C5F8CDE728050020F0B5574677
:104880004E464546DE462C2491460022E0B583B0D4
:1048900098460CAB1B7844435BB29B460DAB1B7830
:1048A0001E4E5BB200930EAB0F009A5631190500F5
:1048B0008A46002049780192FFF7C4FD002816D0EF
:1048C000002F1BD122004B460832B218137043460A
:1048D00053705B469370009BD370019B137105234B
:1048E0002C204543761900207178FFF7DDFD03B0D9
:1048F0003CBC90469946A246AB46F0BD51460F726D
:104900004946083432195170414691705946009B0E
:10491000D1701371019B53710623E1E72805002034
:1049200010B52C2200210248FEF76AF810BDC046DF
:104930002805002010B52C2200210248FEF760F85F
:1049400010BDC04628050020F0B54B7906000D00CB
:1049500083B0032B0AD10879C400241A1234A4B2FC
:10496000944203D81A4F7B78002B03D000242000F8
:1049700003B0F0BD09786918B9624B78212BF5D1E5
:104980000B780200C9187B1C0193BB1C00933000FC
:104990000323FFF717FD0028E8D0AB79012B13D0D4
:1049A00001233B71AB7802223B70BB6AB81DD91D55
:1049B000FEF72CF8B9780029D9D03A00102330003E
:1049C0001832FFF771FDD2E7EB79FB70E8E7C046DC
:1049D000280500201F23F0B515780600140083B0C9
:1049E0002B40012B17D15F4F12793B789A4212D19D
:1049F00060231A002A402B4208D0202A0BD163786A
:104A00000B2B08D8584A9B00D3589F4600290DD13C
:104A10006378062B0CD0002003B0F0BD002905D12F
:104A20003A1D012321003000FFF788FD0120F3E744
:104A3000E378212B68D0222BEDD10020FCF70EF873
:104A400021000200FB883000FFF778FD0120E3E73A
:104A5000002917D00229E9D1A178444B3971002BE4
:104A6000E4D0002000E000BF0120D5E70029DDD11F
:104A7000E1783F4B7971002B04D0002000E000BFAB
:104A80000028C8D021003000FFF740FD0120C3E717
:104A9000002942D1E379A2791B021343102BBAD823
:104AA0003A0021001832FFF749FD0120B4E77A1DD2
:104AB0000029B6D00120AFE70029B7D1E379A0796A
:104AC0001B020343E278A178181C102B00D9102098
:104AD00080B2002941D0012B3FD93B00012501388C
:104AE000397280B2093300900020FBF793FF281839
:104AF00083B2002B00D18EE73A002100300008324B
:104B0000FFF71CFD012087E7BA6A002A00D182E77F
:104B100021001378FFF712FD7EE7022986D1E079A4
:104B2000A37900021843E278A178041C102800D968
:104B300010243B00A4B21833002908D0012806D95C
:104B4000387E884203D13B00013CA4B219330020D7
:104B50000094FBF761FF01205EE73B00002508336E
:104B6000C1E7C04628050020C45200100000000024
:104B70000000000070B5164C0500A27882B08A4291
:104B80000FD16178914211D1124A0125002A05D036
:104B900021000020DAB20831FBF798FE280002B0AD
:104BA00070BD627800258A42F8D1EDE726009BB2FD
:104BB000183600220021002000933300FBF72CFF61
:104BC000280010233200A178FFF76EFC0500E5E70E
:104BD00028050020CD08001010B50020FEF714FEB7
:104BE00010BDC04610B5FEF709FE10BD072210B576
:104BF00044790379224012021A43C3789B079B0F22
:104C0000022B05D0032B15D00020012B08D010BD9E
:104C100002291CD00020402393424041C0B2F6E755
:104C200002394B4259410D4B9C46614491424041EF
:104C3000C0B2ECE702394B425941F023002049420F
:104C40009B001940403191424041C0B2DFE7044B24
:104C50009C46624450425041C0B2D8E7FF03000076
:104C600000FEFFFFF0B5002A11D000247F274D7809
:104C7000052D06D13D008E7835406D00F6094519A9
:104C8000AB550D786419A4B24919A242EFD8F0BD12
:104C900070B5040080690D00002803D0012149424D
:104CA00000F02AF9E089218A86B2421A8BB292B2C8
:104CB000884202D26189521A92B2A088904207D2E9
:104CC00086422CD262898218B21A92B222820200E3
:104CD000002A02D11CE01B1A9BB29842FBD9E28841
:104CE000216853432800C918FDF790FE228A012548
:104CF000531C9BB29A420ED9002362899B189BB227
:104D0000A0692382002801D000F0D6F8280070BDE9
:104D10000025238A9BB2A2899A42F1D2EDE7321A8A
:104D2000A18992B29142D1D2CCE7C046F8B5040035
:104D300040690E00002803D00121494200F0DCF850
:104D4000E289218A95B2531A9BB2914202D96289B3
:104D50009B1A9BB2A2889A4221D02B00954203D382
:104D60009B1A9BB29A42FBD9E28821685343C81828
:104D70003100FDF74BFE6B1C9BB29D420BD9628943
:104D80009B189BB260690127E381002801D000F0E5
:104D900093F83800F8BDA2899A42F3D2EFE7277A58
:104DA000002FDAD1F5E7C04610B5040040690028AD
:104DB00003D00121494200F09FF8A069002803D0E8
:104DC0000121494200F098F80023E3812382A3885F
:104DD00060695B009BB25A1E5B42A281638100281E
:104DE00001D000F069F8A069002801D000F064F853
:104DF000012010BD10B51920FBF7A6FED02380229C
:104E0000E1211B0692045A620448054B00221860F7
:104E100049020123FDF7CAFF10BDC0460040034010
:104E2000AC0A0020D02380221B069204002801D067
:104E30005A6170479A61FCE710B500F06DF80123E4
:104E40005840C0B210BDC04610B5830727D00378C4
:104E5000002B26D00300032102E01A78002A1CD080
:104E600001330B42F9D119680F4A104C8A188A4352
:104E700022420FD1043319680B4A8A188A4322420E
:104E800008D104331968084A8A188A432242F1D0AB
:104E900000E001331A78002AFBD1181A10BD030074
:104EA000E1E70020FAE7C046FFFEFEFE808080803A
:104EB000F8B5C0460000000001B40248844601BCB9
:104EC000604700BFE901002001B40248844601BCEC
:104ED000604700BF7102002001B40248844601BC53
:104EE000604700BF7102002001B40248844601BC43
:104EF000604700BF0901002001B40248844601BC9C
:104F0000604700BF5101002001B40248844601BC43
:104F1000604700BFC100002001B40248844601BCC4
:084F2000604700BF11020020F0
:104F28006173640071776571776500000B0000009C
:104F38000C0000000D0000000E0000000F00000033
:104F48000000000001000000020000000300000053
:104F58001900000041424344414243444142434412
:104F6800414243444142434454696E795553420097
:104F780054696E795553422044657669636500002B
:104F880031323334353600000904000009022200AA
:104F9800010100A0320904000001030000000921FA
:104FA8001101000122EF0007058103100005000030
:104FB8001201000200000040FECA04400001010284
:104FC8000301000005010906A1018501050719E093
:104FD80029E71500250195087501810295017508D5
:104FE80081010508190129059505750191029501A9
:104FF80075039101050719002AFF00150026FF0017
:10500800950675088100C005010902A101850209FC
:1050180001A1000509190129051500250195057546
:1050280001810295017503810105010930093115D6
:1050380081257F95027508810609381581257F9598
:105048000175088106050C0A38021581257F95012E
:1050580075088106C0C0050C0901A101850315006A
:1050680026FF0319002AFF03950175108100C0056A
:10507800010905A101850405010930093109320931
:1050880035093309341581257F9506750881020590
:10509800010939150125083500463B0195017508B8
:1050A800810205091901292015002501952075019E
:1050B8008102C0004E6F207370696E6C6F636B73F2
:1050C8002061726520617661696C61626C650000BF
:1050D800486172647761726520616C61726D202528
:1050E8006420616C726561647920636C61696D65C7
:1050F800640000000A2A2A2A2050414E4943202AE7
:105108002A2A0A000A000000486172642061737349
:105118006572740052656C6561736500626F6F74C7
:10512800325F77323571303830000000312E332E3F
:10513800300000007069636F000000005465636C04
:1051480061646F004A616E2032362032303232009C
:1051580006005250BBFF3CB63C51001006005250AE
:10516800E182887F2451001006005250D3F0754226
:105178001C5100100D0A00005541525420737464EC
:10518800696E000055415254207374646F75740041
:105198005541525420737464696E202F20737464CF
:1051A8006F7574000600525053B4F4A19851001062
:1051B8000800525092000000556E68616E646C657C
:1051C800642049525120307825780A0065702025DE
:1051D800642025732077617320616C72656164793E
:1051E80020617661696C61626C65000043616E27BD
:1051F8007420636F6E74696E7565207866657220B9
:105208006F6E20696E61637469766520657020250C
:10521800642025730000000000390010023B0010D4
:10522800943A0010463A0010283A0010103A00103C
:10523800A03900104E39001042390010E43D00102A
:10524800D03D0010FE390010383E0010FE39001025
:10525800203E00100C3E0010FE390010F83D0010F2
:10526800A63D0010FE3900109E3E0010723E001050
:10527800663E0010FE390010FE390010483E00104E
:10528800723E0010FE390010FE390010FE39001081
:10529800FE390010FE390010FE390010FE390010EA
:1052A800B03E00102149001035490010494900104E
:1052B800D5490010754B001000000000164A001078
:1052C800B84A0010AE4A00101C4A0010164A0010D6
:1052D800164A0010164A0010164A0010164A001006
:1052E800904A00106C4A0010504A00104C45440087
:1052F8000900525000000002F452001008005250F9
:04530800120000008F
:10530C00B4020010A80200109C02001058510010AA
:10531C00900200106451001070510010F8520010EF
:0C532C0004530010AC510010B8510010E8
:10533800D02330B500251B0600245D5706E003681E
:10534800BFF35F8F1C6081F3108820BF0268EFF302
:10535800108172B61368002BFCD0BFF35F8F0379FE
:105368007F2BECD905710368BFF35F8F00221A60A9
:1053780081F3108830BDC046030010B50068EFF314
:10538800108472B60268002AFCD0BFF35F8F042233
:105398009A56002A0BDB00290FD000200A601B68F0
:1053A800BFF35F8F00221A6084F3108810BDD022EB
:1053B8001206126801201A71F1E70020EFE7C046D3
:1053C800F0B5C64600B50C00804600F09DF8FA22FC
:1053D80006000F00200000230021920000F08CF846
:1053E8008019794104000D008F422FD82CD0D0238A
:1053F8001B0600261F680CE042461268BFF35F8F49
:10540800166083F310882000290000F06DF800284A
:1054180020D143461A68EFF3108372B61168002949
:10542800FCD0BFF35F8F424612797F2AE4D9424607
:1054380017711268BFF35F8F0021116083F3108822
:10544800012004BC9046F0BD8642D0D901246442B4
:10545800E517CCE70020F4E70268EFF3108172B695
:105468001368002BFCD0BFF35F8FFF230371036821
:10547800BFF35F8F00221A6081F3108840BF704726
:1054880082B0EFF3108172B6134B1A6880239B0128
:105498005340C02292011340104A13600023FA229D
:1054A8000193019B9200934205DA019B013301931A
:1054B800019B9342F9DBD023C0221B069868064B58
:1054C80092011B681340054A136081F31088800716
:1054D800C00F02B07047C0460C8001400C900140DC
:1054E8007047C0460000000001B40248844601BC71
:1054F800604700BF5513001001B40248844601BC40
:10550800604700BF2D29001001B40248844601BC41
:10551800604700BFF9140010FA000000904F001017
:10552800704F0010784F0010884F001010000000D6
:10553800D802002000000000B0030020340600203C
:1055480000000000000000004406002000000000E9
:105558000000000010000000000000000000010032
:105568000000000000000000000002000000000031
:105578000000000000000300000000000000000020
:105588000000FF000000000000B5486801318E46A9
:105598000047704609380149884700BD5D21001061
:1055A800503300004C3300005433000052330000E5
:1055B8004D5300004D4300005334000043340000B5
:1055C800E12C0010000000002D2D0010000000004C
:1055D80000010000A851001088510010C00C0020E4
:1055E80010000C000000E0FF1F0000000000000099
:1055F80000000000000000000000000000000000A3
:105608000000000000000000F129001055230010E0
:0C56180041280010612900103903001027
:04000005100001E9FD
:00000001FF
